:020000040800F2
:1000000020080020613D0008411B0008431B000838
:10001000471B00084B1B00084F1B00080000000096
:10002000000000000000000000000000531B00085A
:10003000551B000800000000571B0008591B000852
:100040007B3D00087B3D00087B3D00087B3D0008B0
:100050007B3D00087B3D00087B3D00087B3D0008A0
:100060007B3D00087B3D00087B3D00087B3D000890
:100070007B3D00087B3D00087B3D00087B3D000880
:100080007B3D00087B3D00087B3D00087B3D000870
:100090007B3D00087B3D00087B3D00087B3D000860
:1000A0007B3D00087B3D00087B3D00087B3D000850
:1000B0005B1B00087B3D00087B3D00087B3D000882
:1000C0007B3D00087B3D00087B3D00087B3D000830
:1000D0007B3D00087B1B00087B3D00089F1B000840
:1000E0007B3D00087B3D00087B3D00087B3D000810
:1000F0007B3D00087B3D00087B3D00087B3D000800
:100100007B3D00087B3D00087B3D00087B3D0008EF
:100110007B3D00087B3D00087B3D00087B3D0008DF
:100120007B3D00087B3D00087B3D00087B3D0008CF
:1001300000F002F800F04AF80AA090E8000C8244AF
:100140008344AAF10107DA4501D100F03FF8AFF28C
:10015000090EBAE80F0013F0010F18BFFB1A43F0A5
:1001600001031847A0630000C0630000103A24BFD9
:1001700078C878C1FAD8520724BF30C830C144BF0C
:1001800004680C607047000000230024002500264E
:10019000103A28BF78C1FBD8520728BF30C148BFEA
:1001A0000B607047662906F09880642903F03A8650
:1001B000002070471FB504F0EDF804000020002176
:1001C00005F070F8E0601FBD10B510BD04F0FAF93D
:1001D0001146FFF7EFFF00F044F804F018FA03B4FB
:1001E000FFF7F2FF03BC01F033FB000008B501216B
:1001F000402001F031FF4FF48060ADF80000142082
:100200008DF8030003208DF802006946374803F09B
:10021000F9F84FF48061354803F0A1F908BD08B53D
:100220000121402001F018FF40F20140ADF800002C
:1002300010208DF8030003208DF8020069462B483A
:1002400003F0E0F80121294803F089F94FF48061B7
:10025000264803F084F908BD00E0401E0028FCD1C8
:10026000704700244FF4A06003F01CFC2048FFF707
:10027000F3FFFFF7D4FF00F03BFD01F0F7FAFFF7C3
:10028000B5FF01F0A7FC01F0C3FB00F041F800F05E
:1002900057FC29E01748006805F0DEFC05462A46B1
:1002A0000B4615A003F07EFD15480088E0B1154807
:1002B0000078C8B10020134908702046611C8CB238
:1002C000322811DB0B48006805F022FE054629465E
:1002D0000DA003F067FD002404480C30006880F096
:1002E000010002490C310860D4E700000018014009
:1002F000888888001800002025660D0A000000008C
:10030000720000201400002025640D0A0000000087
:100310001FB51C208DF8000000208DF80100012081
:100320008DF802008DF80300684603F0C0FB012140
:10033000084601F09EFE42F20F70ADF8080047201B
:10034000ADF804000020ADF80A00ADF8060001A9E0
:100350004FF0804001F0B8FF0121880702F010FB48
:1003600001221146900702F026FB1FBD2DE9FE4336
:100370005C480068401C5B4908605B480068401CA2
:100380005949086057480068B0F5AC6F02D30120A6
:100390005649087054480068B0F5C56F05D3012070
:1003A00053490870002050490860524800880128CD
:1003B00007D151480068401C4F49086001204F494F
:1003C00008704F484F49504A504BCDE900210290E8
:1003D0004F4A5049504801F062FB01F0B5F94E48D0
:1003E00000884E490988401A00B24B4908804748A6
:1003F00000884B490988401A00B2444908804248A5
:10040000008848490988401A00B23F4908803D48A1
:10041000008845490988401A00B23A4908803E4898
:10042000B0F9000005F090FD0446404905F0D8FD04
:100430003F4908603348B0F9000005F08FF90446E1
:100440000D463148B0F9000005F088F9064622460D
:100450002B4604F067FE804604F03AFF35490860F9
:100460000846006805F0F8FB0646334A334B05F0B2
:10047000C9F9044604F02CFF2E49086000212D48DC
:10048000006805F0B5FE2B4908602D4B2D4A284821
:1004900001682848006801F051F82648006801F01A
:1004A0000EF8294908700821284803F03EF8850015
:1004B0000421264803F039F805EB400502212448C1
:1004C00003F033F82844C0F10700C4B2204600F01E
:1004D00033FC1B4801681B48006800F05FF9BDE869
:1004E000FE830000880000202C0000207C000020FB
:1004F0007D00002028000020840000207E000020D5
:100500009C0000209A000020980000209600002007
:1005100094000020920000209000002000000020A5
:10052000080000200C0000201000002011C2793DBE
:100530001C00002018000020CB67791EDCA54C4071
:1005400024000020200000202A0000200008014094
:10055000001801402DE9F0410446722C71D004DCF2
:10056000642C58D06C2C55D1A9E0732C6AD0752C12
:10057000F9D1FE480078642811D1FD48FD49086092
:100580004FF07E50FC4908600020FC490880FC497F
:100590000880FC490880C820FB4908703AE0FA4806
:1005A000007880B9F948F34908604FF07F50F2496C
:1005B000086042F21070F14908800020F04908807C
:1005C000F049088026E0F0480078401EEE490870A7
:1005D000E848006805F040FB0546ED4AED4B04F0A5
:1005E000A9FE074604F074FEE2490860E24800688C
:1005F00005F032FB0546E84AE84B04F09BFE07464F
:1006000004F066FEDC490860DC480088323000B245
:10061000DA49088090E0D5480078752813D1D4488D
:10062000D44908604FF07E50D34908600020D34978
:100630000880D3490880D3490880C820D24908706F
:100640003CE052E067E0D048007880B9CF48C94923
:1006500008604FF07F50C84908604DF6F000C74968
:1006600008800020C6490880C649088026E0C648A0
:100670000078401EC4490870BE48006805F0ECFAD6
:100680000546C34AC34B04F055FE074604F020FE5E
:10069000B8490860B848006805F0DEFA0546BE4A69
:1006A000BE4B04F047FE074604F012FEB249086054
:1006B000B2480088323800B2B04908803CE0B848FF
:1006C000AC4908604FF07F50AB4908600020AB494F
:1006D00008804FF60C60AA4908804FF4FA70A949C7
:1006E00008800020A849087026E0AD48A1490860AC
:1006F0004FF07F50A04908600020A04908804FF4C7
:10070000FA709F4908804FF60C609E4908800020CF
:100710009D49087010E09648964908604FF07E5059
:1007200095490860002095490880954908809549B9
:1007300008809549087000BF00BF8C480470BDE870
:10074000F08110B50021012008E0964A32F81030FF
:10075000421E944C24F81230421CD0B21428F4DB10
:10076000914BB3F90030914CB4F900401A1902EBE7
:10077000D2735B101BB28B4CE384002005E0894AE6
:1007800032F910201144421CD0B21428F7DB142295
:1007900091FBF2F212B2864B1A8010BD2DE9F34F95
:1007A00091B0834683480168584605F016FD82499A
:1007B0000860FFF7C6FF4FF06632804B804903C9DF
:1007C00005F020F87E4A03C27948B0F9000004F031
:1007D000C5FF07464FF033327A4B05F013F8054654
:1007E00077480CC8284604F0A5FD754A03C2744832
:1007F00075490CC803C904F09DFD734A03C25F48E4
:10080000B0F9000004F0AAFF05466F480CC828465E
:1008100004F090FD6C4A03C200226C4B6A4903C984
:1008200004F0B4FF05D200216848674AC2E900100D
:100830000BE00022664B644903C905F0E1F804D2DD
:1008400000216348604AC2E900104B48006805F087
:1008500003FA05465A480CC8284604F0D3FFCDE9F0
:1008600006014448006805F0F7F9054656480CC8EB
:10087000284604F0C7FF0746884656481299006884
:1008800005F0AEFB06464C4801685348006805F089
:10089000A7FB3146019005F0ABFC054605F0DCF9FD
:1008A0003A464346CDE9020104F044FDCDE9040196
:1008B000DDE9062304F03EFDCDE9080104F008FD62
:1008C000464908602F48B0F9000005F03DFB064698
:1008D00042480168304605F0EBF9054605F018FB83
:1008E00000B2314908802648B0F9000005F02CFB21
:1008F00006463A480168304605F0DAF9054605F043
:1009000007FB00B22949088035493648006805F0E0
:1009100033FC05D334493348006805F02DFB04D27D
:10092000002021490880214908801F48B0F90000B3
:1009300042F21071884203DD08461B49088009E035
:100940001948B0F900002949884203DA4DF6F00051
:10095000154908801548B0F9000042F2107188422C
:1009600046DD0846114908804CE000003D000020AB
:100970000AD7233C500000205800002034000020FB
:1009800036000020380000203C000020CDCC4C3D3B
:100990002D431CEBE2362A3F7B14AE47E17A643FDD
:1009A0008FC2F53C080100203000002032000020FA
:1009B0003A00002044000020480000206666E63F20
:1009C000680000203333D33F6000002080C0F4C0B3
:1009D00080C0F440540000204C0000204000002063
:1009E0000000204220000020000020C2F0D8FFFFBD
:1009F0004B48B0F900004B49884203DA4DF6F0004D
:100A0000474908804848B0F90000002808DD8021E7
:100A1000464802F0A6FD444800881FFA80F908E025
:100A20008021424802F09BFD3F48008840421FFA67
:100A300080F93B48B0F90000002809DD4FF400615F
:100A40003B4802F08CFD364800881FFA80FA09E026
:100A50004FF40061364802F084FD3148008840427E
:100A60001FFA80FA334890FBF9F4B4F5803F02D3C3
:100A70004FF6FF7901E01FFA84F92E4890FBFAF453
:100A8000B4F5803F02D34FF6FF7A01E01FFA84FAF3
:100A9000A9F1010080B2ADF83C001D20ADF838008E
:100AA0000020ADF83E00ADF83A000EA9224801F052
:100AB0000BFC6020ADF828000120ADF82A000020D2
:100AC000ADF830004FEA6900ADF82E000AA91A48C7
:100AD00001F0C6FCAAF1010080B2ADF83C001D2077
:100AE000ADF838000020ADF83E00ADF83A000EA990
:100AF000124801F0E9FB6020ADF828000120ADF8B4
:100B00002A000020ADF830004FEA6A00ADF82E0050
:100B10000AA90A4801F015FC13B0BDE8F08F0000E7
:100B200032000020F0D8FFFF300000200014014008
:100B30000018014040420F0000080040000400403F
:100B400000B589B00121782001F086FAF820ADF8CF
:100B5000040010208DF8070003208DF8060001A97D
:100B60005C4802F04FFC4FF47840ADF804001020D0
:100B70008DF8070003208DF8060001A9564802F001
:100B800041FC6021534802F0ECFC1021514802F076
:100B9000E6FC08214F4802F0E4FC80214D4802F0B9
:100BA000DEFC4FF4C0414C4802F0DBFC4FF48051B6
:100BB000494802F0D4FC4FF40041474802F0D1FC10
:100BC0004FF40061444802F0CAFC4FF48070ADF865
:100BD000040018208DF8070003208DF8060001A9F5
:100BE0003E4802F00FFC4020ADF8040018208DF8BC
:100BF000070003208DF8060001A9394802F002FC25
:100C00000121042001F035FA41F61F40ADF81C0027
:100C10000020ADF81800ADF81E00ADF81A0006A9C6
:100C2000304801F051FB6020ADF808000120ADF81C
:100C30000A000020ADF810004FF46160ADF80E001E
:100C400002A9284801F00CFC0821264801F0DEFF2B
:100C50000121244801F094FF0121224801F090FE77
:100C60000121022001F005FA0121084601F0F4F902
:100C700001211D4802F097FC41F61F40ADF81C0011
:100C80000020ADF81800ADF81E00ADF81A0006A956
:100C9000164801F019FB6020ADF808000120ADF8FE
:100CA0000A000020ADF810004FF46160ADF80E00AE
:100CB00002A90E4801F045FB08210C4801F090FF05
:100CC00001210A4801F05CFF0121084801F058FEAB
:100CD00009B000BD0014014000180140000C0140A3
:100CE0000010014000080040000C1A000004004001
:100CF00008B50121402001F0AFF90220ADF8000055
:100D000048208DF8030003208DF802006946FE4854
:100D100002F078FB0121042001F09EF90C20ADF8CF
:100D2000000048208DF8030003208DF8020069467A
:100D3000F64802F067FB08BD10B50446F4480068A9
:100D400019280DD2F348F4490860F448F4490860C2
:100D50000020F4490880F4490880F4490880ADE394
:100D6000EB480068B0F5167F0FD2F1480068EA49F9
:100D70000860F0480068EA4908600020E9490880F6
:100D8000E9490880E949088098E3EB48007818B100
:100D9000EA48007800287DD0E8480078012800D192
:100DA00000BF082C77D2DFE804F00428465C7D966B
:100DB000ACCADF480068D8490860DE480068D849F6
:100DC0000860DF48B0F90000D64908800020D64905
:100DD0000880D6490880DB490870DB48007820B1DC
:100DE0000120DA490880D5490870D94800681E28D2
:100DF00002D90020D149087042E1CD480068C649B7
:100E00000860CC480068C6490860CD48B0F90000C9
:100E1000C449088040F28A20C34908804FF67650C2
:100E2000C2490880CB480088401CCA49088001207C
:100E3000C449087024E1BE480068B7490860BD484D
:100E40000068B7490860BE48B0F90000B54908809D
:100E50000020B5490880B54908800220B9490870CA
:100E60000EE1B3480068AC490860B2480068AC497C
:100E70000860B348B0F90000AA4908804FF4E16067
:100E8000A94908804FF6F800A8490880B1480088B1
:100E9000401C01E0F5E0F2E0AE4908800320A949DA
:100EA0000870EDE0A24800689B490860A14800680E
:100EB0009B490860A248B0F900009A4908804FF6A3
:100EC00076509949088040F28A2098490880042089
:100ED0009C490870D4E0964800688F49086095489E
:100EE00000688F4908609648B0F900008D49088075
:100EF00000208D4908808D4908800520914908709F
:100F0000BEE08B480068844908608A4800688449CC
:100F100008608B48B0F90000824908804FF6F8005D
:100F2000814908804FF4E160804908808A48008840
:100F3000401C89490880062082490870A0E0814849
:100F4000007807287ED2DFE800F004172D40566CA9
:100F500081007748006870490860764800687049E9
:100F600008607748B0F900006E49088000206E499B
:100F700008806E49088080E06D4800686649086016
:100F80006C480068664908606D48B0F90000654922
:100F9000088040F28A20644908804FF67650634901
:100FA00008806AE0624800685B4908606148006840
:100FB0005B4908606248B0F900005A490880002087
:100FC000594908805949088057E0594800685249F2
:100FD000086058480068524908605948B0F9000054
:100FE000504908804FF4E1604F4908804FF6F800FF
:100FF0004E49088041E04E480068474908604D4826
:101000000068474908604E48B0F90000454908802B
:101010004FF676504449088040F28A2043490880C0
:101020002BE0434800683C490860424800683C495E
:1010300008604348B0F900003A49088000203A4966
:10104000088000E018E03949088016E03848006858
:101050003149086037480068314908603848B0F9BC
:101060000000304908804FF6F8002F4908804FF4FF
:10107000E1602E49088000E000BF00BF00BF00BF54
:101080001CE22F48B0F9000040F6340188423ADAF9
:1010900008462B4908802D480088D8B12C480068A4
:1010A0008C2817D208460088143800B208802048DF
:1010B0000068194908601F480068194908602048FD
:1010C000B0F9000017490880002017490880174927
:1010D0000880F3E11D480088A0B11D480068B0F504
:1010E000257F4AD24FF48061074802F03AFA012086
:1010F0001A4908804FF47A70114908800C4800683A
:1011000005492DE039E0E7E0001801400008014002
:10111000880000200AD7233C500000206666663F06
:101120005800002034000020360000203800002045
:1011300074000020780000207E0000207F00002046
:10114000700000208C0000207C000020280000207F
:101150008400002080000020820000207200002017
:101160000860E6480068E64908600020E549088014
:10117000E5490880E5490880A0E1E5480068B0F548
:10118000257F1FD9E2480068B0F52F7F1AD20020D2
:10119000E04908804FF48061DF4802F0E0F9DF4861
:1011A0000068DF490860D5480068D5490860DD4817
:1011B000B0F90000D34908800020D3490880D34902
:1011C00008807BE1D2480068B0F52F7F29D9D0484C
:1011D0000068B0F5437F24D2D0480068D049086049
:1011E000C6480068C6490860CE48B0F90000C54945
:1011F0000880CD480088CD490988884208DD4FF431
:10120000FA70C14908804FF60C60C049088055E16A
:101210004FF60C60BC4908804FF4FA70BB49088057
:101220004CE1BB480068B0F5437F17D9B848006867
:10123000B0F5447F12D8B9480068B9490860AF4892
:101240000068AF490860B748B0F90000AD490880B0
:101250000020AD490880AD4908802FE1AC48006806
:1012600040F2113188421BD9A9480068B0F5667F69
:1012700016D20120A74908808102A74802F071F91F
:10128000A6480068A64908609C4800689C49086018
:1012900000209C4908809C4908809C4908800DE1F9
:1012A0009B480068B0F5667F8BD90120994908807A
:1012B0008102994802F053F99848006898490860FB
:1012C0008E4800688E49086000208E4908808E494B
:1012D00008808E490880F1E095480088E0B18C488C
:1012E00000688C2818D28F480088143800B28D49C5
:1012F00008808A4800688A490860804800688049F8
:1013000008608848B0F900007E49088000207E49C6
:1013100008807E490880D1E08548008800B37C4879
:101320000068B0F5257F1BD24FF480617A4802F047
:1013300018F90120774908804FF47A7079490880BC
:1013400076480068764908606C4800686C49086017
:1013500000206C4908806C4908806C490880ADE029
:101360006B480068B0F5257F1FD969480068B0F563
:101370002F7F1AD20020674908804FF480616648A9
:1013800002F0EDF865480068654908605B48006850
:101390005B4908606348B0F900005A4908800020A2
:1013A000594908805949088088E059480068B0F5D3
:1013B0002F7F29D956480068B0F5437F24D257487B
:1013C0000068574908604D4800684D490860554815
:1013D000B0F900004B4908805348008853490988F8
:1013E000884208DD4FF4FA70474908804FF60C60D8
:1013F0004649088062E04FF60C60434908804FF48C
:10140000FA704249088059E041480068B0F5437FCE
:1014100017D93F480068B0F5447F12D83F480068AC
:101420003F49086035480068354908603D48B0F9D3
:10143000000034490880002033490880334908807F
:101440003CE03348006840F2113188421BD93048F3
:101450000068B0F5667F16D201202E49088081020F
:101460002D4802F07EF82D4800682D490860234879
:10147000006823490860002022490880224908802A
:10148000224908801AE022480068B0F5667F15D925
:1014900001202049088081021F4802F060F81F489F
:1014A00000681F4908601548006815490860002059
:1014B00014490880144908801449088010BD10B5EB
:1014C00004461C49204604F057FE06D21A4920461D
:1014D00004F052FD01D2002010BD0120FCE70021E4
:1014E00007E042F6E06100BF0A1EA1F1010399B2D4
:1014F000FAD1021EA0F10100F3D17047780000205C
:101500005800002034000020360000203800002061
:1015100084000020720000200018014074000020A8
:101520005000002070000020820000208000002079
:1015300028000020000040C0000040402DE9F04796
:1015400007460C4615461E46AC480168204604F086
:101550004FFE8146AA4904F043FD8046A948016830
:10156000404604F0A5FBA7490860A7484168A74882
:1015700004F03EFE8046A4488168404604F038FEF0
:10158000A3490860A048C06880F0004048609E48B9
:10159000C06880F0004088609C48C860086898492E
:1015A00004F01EFD804698480168404604F080FB28
:1015B0009549086096494868914904F011FD8046B4
:1015C00091484168404604F073FB8F494860904958
:1015D00088688B4904F004FD80468B48816840464A
:1015E00004F066FB884988608949C868844904F02A
:1015F000F7FC80468448C168404604F059FB8249A4
:10160000C86080480168384604F0F2FD81490860EE
:101610007D4801684FF07E5004F0E2FC7E4908608E
:10162000794881684FF07E5004F0DAFC7B4908600D
:10163000794801684FF07E5004F0D2FC80464FF0AC
:101640007C5104F035FB7649086008460168724811
:10165000006804F09BFB73490860714801686F489B
:10166000006804F093FB704908606B4800686F499C
:101670000860654841684FF07E5004F0B1FC6C4949
:1016800008606A4801686748006804F0A9FC804661
:101690005D480168404604F0A0FD5B49086064486D
:1016A00001686048006804F09BFC80465648416829
:1016B000404604F092FD544948605C4801685A482D
:1016C000006804F08DFC80464F488168404604F075
:1016D00084FD4D498860564801685348006804F00D
:1016E0007FFC80464848C168404604F076FD464984
:1016F000C860484801684B48006804F071FC8046A7
:1017000040480168404604F0D3FA3E490860414829
:1017100001684548006804F063FC8046374801686A
:10172000404604F0C5FA354908600846016820467D
:1017300004F05EFD3F4908603248006828600846B2
:1017400000683060BDE8F08770B5002100220023FA
:10175000012016E0384C34F81050441E364E26F85E
:101760001450364C34F81050441E344E26F81450A1
:10177000334C34F81050441E314E26F81450441C9B
:10178000E0B21028E6DB2F4CB4F900402A4DEC8380
:101790002D4CB4F90040294DEC832C4CB4F9004099
:1017A000274DEC8300200DE0234C34F910402144F8
:1017B000224C34F910402244214C34F91040234487
:1017C000441CE0B21028EFDB0C46CD1701EB157579
:1017D0002D112DB21B4E35801446D51702EB157511
:1017E0002D112DB2184E35801C46DD1703EB1575F3
:1017F0002D112DB2154E358070BD0000B8000020AF
:101800000AD7233CA0000020A80000206F12033B51
:10181000B0010020BC000020C0000020C400002057
:10182000C8000020CC000020D0000020D400002000
:10183000D8000020A40000205001002070010020EA
:101840009001002096000020980000209A000020BF
:1018500000BF704700BF6A4A128802F04002002AA7
:10186000F9D0C2B2664B1B1D1A80704700B587B015
:1018700025208DF8040001208DF8050000208DF84A
:10188000060001208DF8070001A802F010F90121DF
:10189000042000F0E1FB4FF40070ADF818001820B0
:1018A0008DF81B0003208DF81A0006A9554801F099
:1018B000A9FD4FF48060ADF8180004208DF81B00DE
:1018C00006A9504801F09EFD4FF4165002900020EA
:1018D000ADF80C00ADF80E00ADF81000ADF8140036
:1018E0000C20ADF812000121880300F0B5FB02A91D
:1018F000434801F066FB0121414801F0EEFB012263
:1019000040F225513E4801F0F4FB07B000BD00B5A0
:1019100087B00121082000F09FFB0121880400F01E
:10192000A8FB4FF48060ADF8180018208DF81B005C
:1019300003208DF81A0006A9334801F063FD4FF427
:101940000060ADF8180004208DF81B0006A92E4891
:1019500001F058FD4FF4E13002900020ADF80C008A
:10196000ADF80E00ADF81000ADF814000C20ADF885
:10197000120002A9254801F024FB27208DF804005D
:1019800000208DF805008DF8060001208DF8070075
:1019900001A802F08CF801211C4801F09EFB0122F5
:1019A00040F22551194801F0A4FB07B000BD08B56D
:1019B0000121082000F050FB4FF40070ADF800004A
:1019C00010208DF8030003208DF8020069460E48B0
:1019D00001F018FD4FF400710B4801F0C0FD08BD87
:1019E00070B504460D462946204601F0E3FB00BFD2
:1019F0008021204601F04CFC0028F9D070BD000089
:101A00000038014000080140000C0140004800403F
:101A10001CB500200190022001900020D023372225
:101A20000121009001A800F010F900200190D023BE
:101A30006A220121009001A800F007F9002001901E
:101A4000D0236B220121009001A800F0FEF80020B5
:101A50000190D0236C220121009001A800F0F5F83C
:101A6000062001900020D0231A220121009001A815
:101A700000F0EBF8182001900020D0231B22012158
:101A8000009001A800F0E1F8082001900020D02388
:101A90001C220121009001A800F0D7F81CBD2DE9FF
:101AA000F04786B004460D4616461F46DDE90F9AFC
:101AB000DDF838800120D0233B220E21009002A8BF
:101AC00000F0C3F89DF809109DF8080001EB002014
:101AD00000B238809DF80B109DF80A0001EB002041
:101AE00000B2A8F800009DF80D109DF80C0001EB65
:101AF000002000B2A9F800009DF80F109DF80E001C
:101B000001EB002000B2AAF800009DF811109DF82A
:101B1000100001EB002000B220809DF813109DF80A
:101B2000120001EB002000B228809DF815109DF8EE
:101B3000140001EB002000B2308006B0BDE8F08751
:101B4000704700BFFEE700BFFEE700BFFEE700BF33
:101B5000FEE7704770477047704710B5012188074E
:101B600001F0D7F940B10121880701F0E3F9012024
:101B700014490870FEF7FAFB10BD10B540F225516C
:101B8000114801F09BFB48B140F225510E4801F08D
:101B9000BFFB0D4801F012FB0C49087010BD10B5D9
:101BA00040F225510A4801F089FB48B140F2255125
:101BB000074801F0ADFB064801F000FB034908703F
:101BC00010BD000014000020003801401500002066
:101BD0000048004000B585B00121480500F049FAF1
:101BE0000121082000F038FAC020ADF800000320E1
:101BF0008DF802001C208DF8030069465A4801F058
:101C000001FC5A4801F04CFD0020ADF808004BF6ED
:101C1000FF70ADF80A003020ADF80C004FF4806082
:101C2000ADF80E000001ADF81000514801900121FF
:101C30004E4801F0CCFD01A94C4801F04AFD0121BC
:101C40004A4801F000FE05B000BD2DE9F05F0446F2
:101C50000D4616461F46DDF828804FF0010BDA4688
:101C600078E00121414801F0D6FD00BF41493F48DD
:101C700001F0B2FE0028F9D0002239463B4801F0BD
:101C800020FE00BF3C49394801F0A6FE0028F9D0EB
:101C90003146364801F00FFE00BF3749891C3348F2
:101CA00001F09AFE0028F8D0B8F1000F1AD1A94629
:101CB0004FF0000B0AE014F8011B2C4801F0FBFD6B
:101CC00000BF2D49891C294801F086FEB9F10000AA
:101CD000A9F1010101F0FF09EDD10121234801F033
:101CE000A6FD37E00121214801F095FD00BF214903
:101CF0001E4801F071FE0028F9D0012239461B4828
:101D000001F0DFFD00BF1B49491C184801F064FECB
:101D10000028F8D018E0012D07D10021134801F068
:101D200092FD0121114801F082FD00BF11493F31B0
:101D30000E4801F051FE0028F8D00C4801F0BDFD1E
:101D40002070641C681EC5B2002DE4D10121074833
:101D500001F079FDBAF10000AAF1010101F0FF0ADA
:101D60007FF47FAFBDE8F09F000C014000540040BD
:101D7000400D03000100030082000700DF480068F7
:101D800040F00100DD49086008464068DC49084031
:101D9000DA49486008460068DA490840D7490860CF
:101DA0000846006820F4802008600846406820F457
:101DB000FE0048604FF41F0088607047CF490968F3
:101DC00021F48031CD4A11601146096821F4802147
:101DD0001160B0F5803F03D0B0F5802F0ED106E042
:101DE000C649096841F48031C44A116007E0C3491B
:101DF000096841F4A021C14A116000E000BF00BFA2
:101E0000704710B501460022002300204A11012A24
:101E100002D1BA4C236806E0022A02D1B74C236AE9
:101E200001E0B64C636A01F01F02012494401C409B
:101E30000CB1012000E0002010BD38B5002000905A
:101E40000024002500BF3120FFF7DBFF0546009886
:101E5000401C00900098B0F5A06F01D0002DF2D08A
:101E60003120FFF7CEFF08B1012400E00024204616
:101E700038BD01460020A14A106820F0F80040EA71
:101E8000C10010607047A0490860704702460020FA
:101E90009A4B586820F47C1042EA01031843974B90
:101EA0005860704798490866704701460020934A79
:101EB000506820F003000843506070478F48406826
:101EC00000F00C007047014600208C4A506820F05A
:101ED000F00008435060704701460020874A506870
:101EE00020F4E06008435060704701460020834AB8
:101EF000506820F4605040EAC1005060704729B13A
:101F00007E4A527A02437D4B5A7204E07B4A527AEF
:101F100082437A4B5A7270477B49D83108607047C8
:101F200001460020754A506820F440400843506044
:101F300070470021714A20321170704A82F82010D7
:101F4000012802D004280AD104E001216B4A203282
:101F5000117005E00521694A2032117000E000BFD0
:101F600000BF70476949086070476449096A0143C6
:101F7000624A11627047654944390860704730B55C
:101F800000210022002400235C4D6D6805F00C0147
:101F900021B1042905D0082923D105E05C4D056055
:101FA00022E05B4D05601FE0544D6D6805F4701232
:101FB000524D6D6805F48034022505EB92421CB940
:101FC000544D554305600BE04C4D6D6805F40035EC
:101FD0001DB1504D5543056002E04D4D5543056020
:101FE00002E04B4D056000BF00BF444D6D6805F039
:101FF000F0010909484D6B5C0568DD4045603F4DC7
:102000006D6805F4E061090A434D6B5C4568DD408D
:1020100085603A4D6D6805F46051C90A3E4D6B5CB0
:102020004568DD40C560354D6D6805F44041890B5C
:102030003A4D6B5CC568B5FBF3F5056130BD29B160
:102040002E4A526902432D4B5A6104E02B4A5269D1
:1020500082432A4B5A61704729B1284A9269024348
:10206000264B9A6104E0254A92698243234B9A6188
:10207000704729B1214AD2690243204BDA6104E05A
:102080001E4AD26982431D4BDA61704729B11B4A4F
:10209000D2680243194BDA6004E0184AD2688243DE
:1020A000164BDA60704729B1144A12690243134B88
:1020B0001A6104E0114A12698243104B1A61704799
:1020C00012494039086070470F49C86470470B498E
:1020D000C87170470948406A40F0807007494862FB
:1020E000704701460020054A92680A400AB1012063
:1020F00000E00020704701498872704700100240DC
:102100000000FFF8FFFFF6FE00004242800442425A
:1021100000127A0000093D00E0000020F0000020DD
:1021200010B50446FE48844208D10121C014FFF7CF
:10213000ADFF0021E014FFF7A9FFC4E0B4F1804F28
:1021400008D101210846FFF7AEFF00210120FFF76B
:10215000AAFFB8E0F348844208D101210220FFF72A
:10216000A2FF00210220FFF79EFFACE0EE48844270
:1021700008D101210420FFF796FF00210420FFF77A
:1021800092FFA0E0E948844208D101210820FFF72E
:102190008AFF00210820FFF786FF94E0E44884428C
:1021A00008D101211020FFF77EFF00211020FFF74A
:1021B0007AFF88E0DF48844208D101212020FFF720
:1021C00072FF00212020FFF76EFF7CE0DA48844296
:1021D00008D101214014FFF759FF00216014FFF7D7
:1021E00055FF70E0D548844209D10121C804FFF7AA
:1021F0004DFF00214FF40020FFF748FF63E0D04877
:10220000844209D101210805FFF740FF00214FF466
:102210008010FFF73BFF56E0CA48844209D10121F4
:102220004805FFF733FF00214FF40010FFF72EFFA2
:1022300049E0C548844208D101214020FFF733FF1F
:1022400000214020FFF72FFF3DE0C048844208D125
:1022500001218020FFF727FF00218020FFF723FFC7
:1022600031E0BB48844208D101218015FFF71BFFF4
:102270000021A015FFF717FF25E0B648844209D1D9
:1022800001210804FFF702FF00214FF48030FFF71F
:10229000FDFE18E0B048844209D101214804FFF74F
:1022A000F5FE00214FF40030FFF7F0FE0BE0AB48E5
:1022B000844208D101218804FFF7E8FE00214FF491
:1022C0008020FFF7E3FE10BD00220288944B984265
:1022D0000ED0994B98420BD0B0F1804F08D0914B63
:1022E000984205D0904B984202D0904B984204D12E
:1022F0004FF68F731A404B881A438D4B984207D084
:102300008C4B984204D04FF6FF431A40CB881A43B7
:1023100002808B8883850B880385814B98420BD084
:10232000854B984208D08B4B984205D08A4B9842F7
:1023300002D08A4B984201D10B7A03860123838213
:10234000704770B5002400220023058C4FF6FE76FE
:1023500035400584028C8388048B4FF68F752C40A2
:10236000B51E2C400D882C43751E2A400D892A432A
:102370004D882A436A4DA8420BD06F4DA84208D021
:10238000744DA84205D0744DA84202D0734DA842A6
:1023900013D14FF6F7752A404D892A434FF6FB7546
:1023A0002A408D882A434FF6FF652B404FF6FF5594
:1023B0002B408D892B43CD892B4383800483CD888B
:1023C0008586028470BD70B5002400220023058C30
:1023D0004FF6EF7635400584028C8388048B48F6EF
:1023E000FF752C404FF6FF452C400D884FF6FF76C9
:1023F00006EA05252C434FF6DF752A400D8906EACB
:1024000005152A434D8806EA05152A43444DA8427E
:1024100002D0494DA8421DD14FF67F752A404D8903
:102420004FF6FF7606EA05152A434FF6BF752A4098
:102430008D8806EA05152A434FF6FF352B404FF2EB
:10244000FF752B408D8906EA85052B43CD8906EA69
:1024500085052B4383800483CD880587028470BD66
:1024600070B5002400220023058C4FF6FF6635402E
:102470000584028C8388848B4FF68F752C404FF631
:10248000FC752C400D882C434FF6FF552A400D89D2
:102490004FF6FF7606EA05252A434D8806EA05250C
:1024A0002A431F4DA84202D0234DA8421DD14FF20E
:1024B000FF752A404D894FF6FF7606EA05252A4327
:1024C0004FF6FF352A408D8806EA05252A434EF649
:1024D000FF752B404DF6FF752B408D8906EA0515DB
:1024E0002B43CD8906EA05152B4383808483CD8851
:1024F0008587028470BD70B5002200230024058CFE
:102500004EF6FF7635400584038C8488828B48F62E
:10251000FF752A404FF6FF452A400D8820E0000055
:10252000002C01400004004000080040000C004066
:10253000001000400014004000340140004C0140F5
:10254000005001400054014000180040001C0040B1
:10255000002000400040014000440140004801408C
:102560004FF6FF7606EA05252A434DF6FF752B4008
:102570000D8906EA05352B434D8806EA05352B43C0
:10258000FA4DA84202D0FA4DA84208D14BF6FF7589
:102590002C408D894FF6FF7606EA85152C43848002
:1025A0008283CD88A0F84050038470BD828B4FF2A7
:1025B000FF331A408283828B4FF6FF7303EA0123B5
:1025C0001A4382837047F0B50C461546002200215D
:1025D0000026078C4EF6FF7C07EA0C070784828BE7
:1025E000018C4FF6FF7707EA043640F6FF473A4082
:1025F0004FF6FF7707EA05273A434FF6FF7707EADA
:1026000003373A43D94FB8420ED0D94FB8420BD016
:10261000B0F1804F08D0D74FB84205D0D64FB8425E
:1026200002D0D64FB84206D14DF6FF77394046F476
:102630008057394305E047F6FF57394044F4805747
:10264000394382830184F0BD828B4FF6F3731A40C5
:102650008283828B0A4382837047F0B50C4615460D
:10266000002200210026078C4FF6FF6C07EA0C07BA
:102670000784828B018C4FF6FF7707EA04264FF61A
:102680000C773A404FF6FF7707EA03172F433A4398
:10269000B64FB8420ED0B64FB8420BD0B0F1804F13
:1026A00008D0B44FB84205D0B34FB84202D0B34FB0
:1026B000B84206D14FF6FF57394046F48077394388
:1026C00005E04FF2FF57394044F480773943828365
:1026D0000184F0BD028B4FF2FF331A400283028B5C
:1026E0004FF6FF7303EA01231A4302837047F0B5E4
:1026F0000C461546002200210026078C4FF6EF7C81
:1027000007EA0C070784028B018C4FF6FF7707EA74
:10271000041640F6FF473A404FF6FF7707EA0337C3
:102720003A434FF6FF7707EA05273A438F4FB842FF
:102730000ED08F4FB8420BD0B0F1804F08D08D4FE4
:10274000B84205D08C4FB84202D08C4FB84206D167
:102750004FF6DF77394046F01007394305E04FF672
:102760005F77394044F01007394302830184F0BD9C
:10277000028B4FF6F3731A400283028B0A430283E3
:102780007047F0B50C46154600220021068C4FF626
:10279000FE773E400684028B018C4FF60C76324069
:1027A0007E1C06EA03162E433243704EB0420ED012
:1027B0006F4EB0420BD0B0F1804F08D06D4EB0429A
:1027C00005D06D4EB04202D06C4EB04206D14FF6ED
:1027D000FD76314044F00106314305E04FF6F576D1
:1027E000314044F00106314302830184F0BD70B5ED
:1027F00005460C465D4885420ED05D4885420BD0AB
:10280000B5F1804F08D05B48854205D05A488542D3
:1028100002D05A48854200D100E000BF208850B95C
:102820002389A28861882846FFF7ABFFE188284604
:10283000FFF79EFF25E0208804280AD12389A2887B
:1028400061882846FFF753FFE1882846FFF742FFDB
:1028500017E0208808280AD12389A28861882846A1
:10286000FFF7FBFEE1882846FFF7EEFE09E023892B
:10287000A28861882846FFF7A6FEE1882846FFF770
:1028800095FE70BD2DE9F04105460C460026012756
:10289000608808B9022600E00026A088012801D13E
:1028A000022700E001272088A0B92389A288618837
:1028B0002846FFF766FFE1882846FFF759FF23897E
:1028C0003A4631462846FFF712FFE1882846FFF7CF
:1028D00001FF13E02389A28861882846FFF707FFDC
:1028E000E1882846FFF7F6FE23893A463146284616
:1028F000FFF747FFE1882846FFF73AFFBDE8F08180
:102900000A884B881A438B881A43CB881A430B8951
:102910001A434B891A438B891A43A0F84420704705
:102920004FF6FF71818000210180C18041800172DA
:1029300070470021018041808180C18001814181F7
:102940008181C18170470021018041800121818006
:102950000021C18001817047002101804180818078
:10296000C18001814181818170470000002C0140BC
:10297000003401400004004000080040000C00400A
:1029800021B1028842F00102028004E002884FF681
:10299000FE731A400280704731B1B0F8442042F40F
:1029A0000042A0F8442005E0B0F84420C2F30E0233
:1029B000A0F8442070471AB183890B43838102E059
:1029C00083898B43838170478182704741EA020388
:1029D000A0F8483070471AB183890B43838102E025
:1029E00083898B438381704701894FF6F8721140C8
:1029F000018170470A46002101894FF68F73194003
:102A000011430181704730B504460D4629462046E2
:102A1000FFF7F0FF208940F00700208130BD2DE94D
:102A2000F04104460D4616461F46602D06D13B4632
:102A3000012231462046FFF75AFE05E03B460122BF
:102A400031462046FFF79DFE29462046FFF7D2FF7C
:102A5000208940F007002081BDE8F08130B50C46A8
:102A600000210189C9B24FF6FF7505EA0325154318
:102A700025432943018130BD2DE9F04105460E462D
:102A800017469846002443463A4631462846FFF703
:102A9000E5FF2C894FF6F870044044F007044FF628
:102AA0008F70044044F070042C81BDE8F081F0B5D3
:102AB00004460D4616461F463B46324629462046EA
:102AC000FFF7CCFF208940F480402081F0BD0185D4
:102AD000828270470A46002101884FF68F731940A1
:102AE000114301807047F0B50C4615461E46002183
:102AF000002200230189028B038C4FF6F8773940BE
:102B000021434FF6FC473A4040F201173A434FF653
:102B1000DD773B404FF6FF7707EA06172F433B432D
:102B2000018102830384F0BD0A460021018B4FF628
:102B30008F7319401143018370470A460021018BAE
:102B400048F6FF7319404FF6FF7303EA0223194357
:102B5000018370470A460021818B4FF68F7319401D
:102B60001143818370470A460021818B48F6FF7329
:102B700019404FF6FF7303EA02231943818370471C
:102B800021B1028842F08002028004E002884FF600
:102B90007F731A400280704721B1828842F004029C
:102BA000828004E082884FF6FB731A40828070476F
:102BB00021B1828842F00802828004E082884FF6C8
:102BC000F7731A408280704721B1828842F0010277
:102BD000828004E082884FF6FE731A40828070473C
:102BE0000A460021018B4FF6F77319401143018308
:102BF00070470A460021018B4FF2FF7319404FF6D0
:102C0000FF7303EA02231943018370470A46002138
:102C1000818B4FF6F77319401143818370470A4641
:102C20000021818B4FF2FF7319404FF6FF7303EAC7
:102C300002231943818370470A460021018B4FF616
:102C4000FB7319401143018370470A460021018B31
:102C50004FF6FF3319404FF6FF7303EA022319437F
:102C6000018370470A460021818B4FF6FB731940A0
:102C70001143818370470A460021818B4FF6FF3351
:102C800019404FF6FF7303EA02231943818370470B
:102C90000A460021018B4FF67F73194011430183CF
:102CA00070470A460021018BC1F30E014FF6FF73F6
:102CB00003EA02231943018370470A460021818BEE
:102CC0004FF67F7319401143818370470A460021F4
:102CD000818BC1F30E014FF6FF7303EA0223194300
:102CE000818370470A460021018C4FF6FD7319401D
:102CF0001143018470470A460021018C4FF6F77397
:102D000019401143018470470A460021018C4FF697
:102D1000DF7319404FF6FF7303EA0213194301846E
:102D200070470A460021018C4FF67F7319404FF619
:102D3000FF7303EA02131943018470470A46002116
:102D4000018C4FF6FF5319404FF6FF7303EA02233D
:102D50001943018470470A460021018C4FF2FF732A
:102D600019404FF6FF7303EA0223194301847047A9
:102D70000A460021018C4DF6FF7319404FF6FF7390
:102D800003EA023319430184704730B5002301245C
:102D90008C40A3B2048C9C430484048C02FA01F599
:102DA000ADB22C43048430BD30B5002304248C40E4
:102DB000A3B2048C9C430484048C02FA01F5ADB2E6
:102DC0002C43048430BD70B503460020002418460F
:102DD000183001258D40ACB21D8CA5431D8409B16E
:102DE000082909D100EB6100056825F07005056030
:102DF0000568154305600EE00D1FC5F34E05284418
:102E0000056825F4E045056005684FF6FF7606EA9B
:102E100002263543056070BD21B1028842F00202EE
:102E2000028004E002884FF6FD731A40028070476A
:102E300021B1028842F00402028004E002884FF6C9
:102E4000FB731A400280704721B1828842F08002F1
:102E5000828004E082884FF67F731A408280704738
:102E600002884FF6F7731A40028002880A430280F4
:102E7000704782884FF68F731A40828082880A4397
:102E80008280704702894FF6F8731A4002810289E6
:102E90000A430281704702894FF67F731A4002810C
:102EA00002890A4302817047818470478185704797
:102EB000818670470187704781877047A0F840106E
:102EC000704702884FF6FF431A40028002880A4387
:102ED000028070470146888E70470146088F704710
:102EE0000146888F70470146B1F84000704701469F
:102EF000888C70470146088D704702460020138A6F
:102F00000B400BB1012000E000207047CA43028251
:102F1000704730B50246002000230024158A05EAD8
:102F20000103958905EA010413B10CB1012000E009
:102F3000002030BDCA4302827047000010B504462D
:102F4000FB48844209D101218803FFF79FF8002143
:102F50004FF48040FFF79AF832E0F648844209D1F6
:102F600001214804FFF79FF800214FF40030FFF7DC
:102F70009AF825E0F048844209D101218804FFF73E
:102F800092F800214FF48020FFF78DF818E0EB480D
:102F9000844209D10121C804FFF785F800214FF4CC
:102FA0000020FFF780F80BE0E548844208D10121BA
:102FB0000805FFF778F800214FF48010FFF773F849
:102FC00010BD2DE9F04786B005460E460024A24606
:102FD00000BFA1460027B08900B100BF2F462C8A50
:102FE0004CF6FF700440F08804432C82AC894EF606
:102FF000F3100440B08831890843718908430443C1
:10300000AC81AC8A4FF6FF400440B0890443AC82E7
:1030100001A8FEF7B4FFC648874202D1DDF810A030
:1030200001E0DDF80CA0A88900F4004040B10AEBF3
:10303000CA0000EB0A1031684900B0FBF1F807E064
:103040000AEBCA0000EB0A1031688900B0FBF1F806
:103050006420B8FBF0F004012009642101FB108911
:10306000A88900F4004040B1322000EBC900B0FB59
:10307000F1F000F00700044308E0322000EB0910F3
:103080006421B0FBF1F000F00F0004432C8106B086
:10309000BDE8F0874FF41651016000218180C180A6
:1030A00001810C21418100218181704710B50246C8
:1030B0000020108A4FF2FF0318400B884C882343EE
:1030C0008C882343CC8823431843108210BD0021F1
:1030D000018041808180C180704721B1828942F4A2
:1030E0000052828104E082894DF6FF731A4082818A
:1030F0007047F0B50346002400260025002040F666
:103100006A17B94200D100BF1846C1F3421401F05A
:103110001F06012707FA06F5012C01D10C3004E047
:10312000022C01D1103000E014301AB107682F438F
:10313000076002E00768AF430760F0BD1AB1838AF9
:103140000B43838202E0838A8B4383827047028A27
:103150004FF6F0731A400282028A0A4302827047D5
:1031600082894FF2FF731A40828182890A438281E9
:10317000704721B1828942F00202828104E0828993
:103180004FF6FD731A4082817047028A4FF6DF7353
:103190001A400282028A0A430282704721B1028ADF
:1031A00042F48042028204E0028A4BF6FF731A4026
:1031B00002827047C1F30802828070470146888806
:1031C000C0F308007047818941F001018181704797
:1031D000028BD2B20283028B42EA01220283704741
:1031E000028B02F47F420283028B0A430283704700
:1031F00021B1828A42F02002828204E0828A4FF664
:10320000DF731A408282704721B1828A42F0100235
:10321000828204E0828A4FF6EF731A4082827047FE
:1032200021B1828A42F00802828204E0828A4FF64B
:10323000F7731A408282704721B1828942F40042BA
:10324000828103E08289C2F30E028281704721B13C
:10325000828A42F40062828204E0828A4FF2FF7323
:103260001A4082827047828A4FF6FB731A4082822C
:10327000828A0A438282704721B1828A42F0020226
:10328000828204E0828A4FF6FD731A408282704780
:1032900002460020B1F5007F00D100BF13880B402B
:1032A0000BB1012000E00020704701F40072B2F57C
:1032B000007F00D100BFCA430280704770B502464C
:1032C000002400230025002040F66A16B14200D1F8
:1032D00000BFC1F3421501F01F03012606FA03F3F4
:1032E000012D02D19689334006E0022D02D1168AC3
:1032F000334001E0968A33400C12012606FA04F4AA
:103300001688344013B10CB1012000E0002070BDDC
:1033100010B50022002340F66A14A14200D100BF7C
:103320000A1201249440A3B2DC43048010BD0000C3
:10333000003801400044004000480040004C00407C
:103340000050004010B50446CC48844208D1012109
:103350000420FEF79BFE00210420FEF797FE46E0C6
:10336000C748844208D101210820FEF78FFE0021C2
:103370000820FEF78BFE3AE0C248844208D10121C2
:103380001020FEF783FE00211020FEF77FFE2EE0C6
:10339000BD48844208D101212020FEF777FE00219C
:1033A0002020FEF773FE22E0B848844208D10121B4
:1033B0004020FEF76BFE00214020FEF767FE16E07E
:1033C000B348844208D101218020FEF75FFE00212E
:1033D0008020FEF75BFE0AE0AE48844207D101215F
:1033E0008015FEF753FE0021A015FEF74FFE10BD1D
:1033F00010B501210846FEF749FE00210120FEF725
:1034000045FE10BD2DE9F0410246002500260020B2
:1034100000230024002791F803C00CF00F0591F859
:1034200003C00CF0100CBCF1000F03D091F802C0E7
:103430004CEA050591F800C0BCF1000F31D01468CA
:1034400000202BE04FF0010C0CFA00F3B1F800C0A3
:103450000CEA03069E4220D183004FF00F0C0CFAB9
:1034600003F7BC4305FA03FC4CEA040491F803C0DB
:10347000BCF1280F06D14FF0010C0CFA00FCC2F889
:1034800014C00AE091F803C0BCF1480F05D14FF019
:10349000010C0CFA00FCC2F810C0401C0828D1D363
:1034A0001460B1F800C0BCF1FF0F34DD5468002097
:1034B0002EE000F1080C4FF0010808FA0CF3B1F807
:1034C00000C00CEA03069E4221D183004FF00F0C8E
:1034D0000CFA03F7BC4305FA03FC4CEA040491F828
:1034E00003C0BCF1280F05D100F1080C08FA0CF854
:1034F000C2F8148091F803C0BCF1480F07D100F165
:10350000080C4FF0010808FA0CF8C2F81080401CB3
:103510000828CED35460BDE8F0814FF6FF710180DA
:10352000022181700421C170704702460020936817
:103530000B400BB1012000E0002070470146886875
:1035400080B2704702460020D3680B400BB10120C7
:1035500000E0002070470146C86880B270470161F2
:103560007047416170470AB1016100E041617047F5
:10357000C16070474FF480320A4382618161826189
:1035800082698269704702460020434B18684FF6F3
:103590008073184040EA021008433F4B18607047A0
:1035A0003E49C8617047F0B50A4600230024002157
:1035B000002500F00046B6F1004F02D1364EF16909
:1035C00001E0354E7168C0F3034583B200F4401644
:1035D000B6F5401F08D121F070612F4E766826F0B5
:1035E00070662D4F7E6012E000F48016B6F5801FE5
:1035F00006D1032606FA05F4A14341F0706106E006
:10360000460D360103FA06F6B14341F0706122B16E
:10361000460D360103FA06F6314300F00046B6F1D6
:10362000004F02D11C4EF16101E01B4E7160F0BDF4
:1036300030B500228B071C0F0F2303FA04F2164B40
:1036400008338C1053F824309343134C08348D10F6
:1036500044F8253023468C1053F824308C07240F6F
:1036600000FA04F423430C4C08348D1044F8253040
:1036700030BD0A49DC310860704700000008014095
:10368000000C0140001001400014014000180140EE
:10369000001C0140002001400000014000002042C9
:1036A00010B50446F748844209D101214805FEF7C8
:1036B000FAFC00214FF40010FEF7F5FC08E00121B0
:1036C0008805FEF7F0FC00214FF48000FEF7EBFCCC
:1036D00010BD2DE9F04385B004460D460026B146E5
:1036E0000427DFF8A483A6884FF6C070064068461A
:1036F000FEF745FCDDF80880E448B8FBF0F01FFA5F
:1037000080F946EA0906A68020884FF6FE71084037
:1037100020800026DE49286888420CD828684000AE
:10372000B8FBF0F087B2042F00DA04273E4309F11A
:103730000100208427E0E8884BF6FF71884206D11B
:10374000286800EB4000B8FBF0F087B209E0286879
:1037500000EBC00101EB0010B8FBF0F087B247F4BA
:103760008047C7F30B0008B947F0010747F4004052
:1037700006434FF4967009FB00F04FF47A7190FB0A
:10378000F1F0401C2084A683208840F001002080B6
:1037900026884FF6F5300640A88869890843064315
:1037A0002680A88929890843208105B0BDE8F083D7
:1037B00041F288310160002181804BF6FF71C180A8
:1037C0000021018141814FF480418181704721B105
:1037D000028842F00102028004E002884FF6FE7384
:1037E0001A400280704721B1828842F400628280D0
:1037F00004E082884FF2FF731A408280704721B143
:10380000828842F48052828004E082884EF6FF7300
:103810001A408280704721B1028842F4807202808F
:1038200004E002884FF6FF631A400280704721B11E
:10383000028842F40072028004E002884FF6FF53CF
:103840001A400280704721B1028842F480620280EF
:1038500004E002884FF6FF331A40028070470A46A0
:10386000002181894FF60173194002F0FE031943CC
:103870008181704721B1828942F00102828104E096
:1038800082894FF6FE731A408281704721B1028807
:1038900042F04002028004E002884FF6BF731A40F3
:1038A000028070471AB183880B43838002E08388CB
:1038B0008B4383807047018270470146088AC0B2FB
:1038C000704712B141F0010102E04FF6FE7319405A
:1038D0000182704708B502460020009000920098CF
:1038E000084400900098008808BD21B1028842F485
:1038F0000042028003E00288C2F30E020280704799
:10390000B1F5006F04D1028842F40062028004E045
:1039100002884FF2FF731A4002807047B1F5005FD2
:1039200004D1028842F40052028004E002884DF67D
:10393000FF731A400280704721B1028842F480521E
:10394000028004E002884EF6FF731A40028070473E
:10395000B1F5006F04D1028842F40062028004E0F5
:1039600002884FF2FF731A400280704721B102882B
:1039700042F02002028004E002884FF6DF731A4012
:10398000028070470146088B0012704721B10288FF
:1039900042F01002028004E002884FF6EF731A40F2
:1039A0000280704721B9028842F08002028004E060
:1039B00002884FF67F731A4002807047B1F5804F3E
:1039C00005D0828B4BF6FF731A40828303E0828B13
:1039D00042F480428283704770B50246002400257D
:1039E00000230020958A138B1B0445EA030626F06A
:1039F0007F4404EA01068E4201D1012000E000204C
:103A000070BD10B501460020002300228B8A0A8B6E
:103A1000120443EA020424F07F4010BD0CB50246B4
:103A2000002000230193009300920B0F019321F0DB
:103A30007F41019B1BB1009B1433009303E0090CF1
:103A4000009B18330093009B1B680B400BB10120B7
:103A500000E000200CBD002221F07F42D34383828E
:103A6000704730B5024600200023948801F0E065DD
:103A700004EA154321F07F41948A0C4054B14BB1C4
:103A8000012008E00054004000127A0040420F007C
:103A9000A0860100002030BD002221F07F42D343E8
:103AA0008382704731490143314A1160704770B5D4
:103AB000002100230F22C47804B32D4C246804F4A1
:103AC000E064C4F5E064210AC1F10403CA4044780B
:103AD00004FA03F18478144021430901254C067847
:103AE000A155047804F01F050124AC4005786D1140
:103AF000AD0005F1E025C5F8004109E0047804F0C7
:103B00001F050124AC401C4D0678761145F826406F
:103B100070BD1A4A0A400243154B1B1F1A607047BA
:103B200039B1134A121D12680243114B1B1D1A6052
:103B300006E00F4A121D126882430D4B1B1D1A60CE
:103B40007047042808D14FF0E021096941F00401D1
:103B50004FF0E022116107E04FF0E021096921F008
:103B600004014FF0E0221161704700000000FA05E7
:103B70000CED00E000E400E080E100E080FFFF1FCA
:103B80000CB50020019000906C48006840F4803033
:103B90006A49086000BF6948006800F4003000907E
:103BA0000198401C0190009818B90198B0F5A06FD9
:103BB000F1D16248006800F4003010B1012000909B
:103BC00001E0002000900098012843D15C48006883
:103BD00040F010005A4908600846006820F00300D1
:103BE00008600846006840F00200086053484068DA
:103BF000524948600846406848600846406840F4BA
:103C0000806048600846406820F47C1048600846A0
:103C1000406840F4E81048600846006840F0807052
:103C2000086000BF4548006800F000700028F9D027
:103C30004248406820F00300404948600846406818
:103C400040F00200486000BF3C48406800F00C00B3
:103C50000828F9D10CBD10B5FFF792FF10BD10B5C3
:103C60003648006840F00100344908600846406862
:103C700034490840314948600846006832490840E4
:103C80002E4908600846006820F480200860084635
:103C9000406820F4FE0048604FF41F008860FFF782
:103CA000DAFF4FF000602949086010BD10B500210F
:103CB00000200022214B5B6803F00C0121B1042994
:103CC00006D0082928D107E0214B224C236027E0A9
:103CD0001F4B204C236023E0184B5B6803F47010EB
:103CE000164B5B6803F48032022303EB904022B949
:103CF000194B4343174C23600DE0104B5B6803F4F2
:103D0000003323B1144B4343124C236003E0104BA8
:103D10004343104C236003E00D4B0E4C236000BF67
:103D200000BF064B5B68C3F303130C4CE15C094B0B
:103D30001B68CB40074C236010BD00000010024000
:103D4000002002400000FFF8FFFFF6FE08ED00E053
:103D500000127A00F400002000093D00F800002065
:103D60000948804709480047FEE7FEE7FEE7FEE70F
:103D7000FEE7FEE7FEE7FEE7FEE7FEE7044805494B
:103D8000054A064B704700005F3C000831010008FF
:103D90002002002020080020200400202004002011
:103DA000704700000FB4044910B503AA029800F050
:103DB000DFFA10BC5DF814FBDC0000202DE9F041B7
:103DC0000E460446002020622046E168884730B352
:103DD000252805D0D4E901219047206A401CF2E74C
:103DE000E168204600278847050018D0A5F141006A
:103DF000192802D820354FF400673246294620465C
:103E00002760FCF7CFF940B1012804D0F61D26F059
:103E100007060836D8E7361DD6E72846DAE7206ACF
:103E2000BDE8F0812DE9F0410646002410687529AF
:103E3000314616A510D0AFF30080002802DA4042C8
:103E400013A507E031688A0701D512A502E04907EA
:103E500004D511A5012401E0AFF3008000210A225E
:103E600006F1240709E0B0FBF2FCB0FBF2F302FB21
:103E70001C00303078541846491C0028F3D12346E2
:103E80002A463046BDE8F04100F00CB800000000C2
:103E90002D0000002B00000020000000704770473C
:103EA000704770472DE9F0470D4699469246044603
:103EB00000F124080168880604D5E06921F01001AA
:103EC000216000E00120A84201DD471B00E000273F
:103ED000A1697A1902EB0900081AA0612078C006CE
:103EE00002D42046AFF30080002608E0D4E9012187
:103EF0001AF806009047206A401C761C20624E4546
:103F0000F4DB2078C0060AD52046AFF3008006E037
:103F1000D4E9012130209047206A401C2062381EDD
:103F2000A7F10107F4DC07E0D4E9012118F8050046
:103F30009047206A401C2062281EA5F10105F3DC91
:103F40002046AFF300802078000602D50220BDE8AD
:103F5000F0870120FBE770472DE9FF4F0C461E4616
:103F60004FF0FF378BB0D2E90001DDF860800A9096
:103F70008A46C1F30A5505B93D46002108464FF06F
:103F80000000BAF1000F00F4400005DA00EB8000F9
:103F90004FF4400101EA50004FEA9059B9F1010F86
:103FA00000DDB9460A9850EA4A000ED044F6105097
:103FB000A5F2FF3545432F14B8F1000F1ED075420E
:103FC000291E1EDDC9F100021CE0B8F1010F4FF0FF
:103FD000000001D0302103E0F24305E02154401CF1
:103FE000B042FBDB30460022002121540B99C1F87E
:103FF0000880C1E900200FB0BDE8F08FBD1B6D1C2B
:10400000DEE74A4600DA694206A800F065FA06AB28
:1040100093E8070003AB83E8070050460A9900F0D5
:104020003FFB8DE80700A0F500501F380090039873
:10403000002D09DD42F21F014A46084403A90390FE
:10404000684600F09EFD08E0A0F500504A461F3883
:1040500003A90390684600F0A8FD8DE8070000045E
:10406000000C03D04FF0FF30410800E01046B8F1DB
:10407000000F03D00022009215461EE0751E05D4E5
:1040800000F08CF9303262556D1EF9D5B34601222D
:10409000084302D000227F1C04E02078302801D1A0
:1040A00000227F1E002A099786D01DE0112D07DA15
:1040B00000F074F9303262556D1C50EA0102F5D1FE
:1040C000084302D00098C8B10EE00021681E05E048
:1040D000235C625C63542254401E491C8142F7DB1E
:1040E000AB46A81B401E0990002004F80B000B985B
:1040F000099AC0F80880C0E9002B7CE711264FF030
:10410000000859E72DE9F04F88460446D21D22F0F9
:10411000070191B0D1E90001CDE90A0100F07BFE71
:1041200002460B98C00F01D02D2007E020688107C0
:1041300001D52B2002E0202101EAC000032A0990CA
:1041400001D0072A05DB03464146204600F084F9EA
:104150000BE12078800601D5E06900E00620B8F187
:10416000650F814606D0B8F1660F18D0B8F1670F19
:1041700070D131E00020B9F1110F009001DB112363
:1041800001E009F101030AAA01A90CA8FFF7E4FE66
:10419000DDE90C70002609F10105834647E00120A6
:1041A0004B4600904FF000470AAA01A90CA8FFF760
:1041B000D3FEDDE90DB00C995D46002610B909F17A
:1041C00001000D18B9EB050003D4C0F1FF3609F169
:1041D0000105A5EB09002BE0B9F1010F01DA4FF061
:1041E00001090020B9F1110F0090484601DD1123AB
:1041F00000E003460AAA01A90CA8FFF7ADFEDDE91D
:104200000C704D4600268346207800070AD4AB4543
:1042100000DA5D4601A8012D04DD411911F8011CE9
:10422000302907D04F4502DA17F1040F04DA0120D4
:1042300082460FE06D1EEEE7002F02DCED1B3E44D0
:1042400003E0781CA84200DD7D1CB81B00F1010AC8
:104250004FF000472078000703D4AA4501DB4FF058
:10426000FF3A0021B7F1004F0DF143088DF84310DC
:1042700024D002202B23002F01DA7F422D230A2194
:10428000021EA0F1010000DC5FB197FBF1FC97FB7F
:10429000F1F201FB1C7C17460CF1300C08F801CD43
:1042A000EEE7A8F1010003702188090501D5452139
:1042B00000E06521A0F1010800F8011C09980FA990
:1042C000A1EB0807FF1D00B10120411901EBEA70C5
:1042D000A1693844081A401EA0612078C00602D4A3
:1042E0002046AFF30080099828B1D4E90121904716
:1042F000206A401C20622078C00622D52046AFF3F9
:1043000000801EE0002E04DBB34502DD01A8805DC5
:1043100000E03020D4E901219047206A401C20624F
:10432000761CAAF101005FEA000A0AD100F032F817
:10433000C0680168405CD4E901219047206A401CB4
:104340002062281EA5F10105DCDC07E0D4E901218B
:1043500018F8010B9047206A401C2062381EA7F114
:104360000107F3DC2046AFF30080032011B043E6E1
:10437000074B70B50D467B4400F05BF804462846B9
:1043800000F018F910B14FF0FF3070BD204670BD3D
:10439000DBD4FFFF00487047E001002030B5B0F1EA
:1043A0000A024FEA900E71F100034EEA817EB0EBF3
:1043B0000E0061EB91014FEA101E4EEA017E10EBF8
:1043C0000E0041EB11114FEA102E4EEA016E10EB78
:1043D0000E0041EB11214FEA104E4EEA014E10EB58
:1043E0000E0041EB1141401841F100014FEAD000AD
:1043F00040EA41704FEAD10110EB80054FEA810499
:1044000044EA907444EB01046D1944EB0404521B1C
:10441000A3414FF0000348BF0A3200D530BD401C15
:1044200041F1000130BD000001694A1C02610878B9
:10443000704700B58FB0CDE90131002105910549E4
:104440007944CDE9031011466846FFF7B7FC0FB079
:1044500000BD0000E5FFFFFF2DE9F0411F460446C7
:1044600003260168072A01F4006004DB08B116A5E1
:1044700005E016A503E008B115A500E015A521F09B
:1044800010002060A069C01EA0610FB1401EA06195
:104490002046AFF300804FB1D4E901213846904760
:1044A000206A401C2062C01C206206E0206AFAE7F5
:1044B000D4E9012115F8010B9047761EF8D2204669
:1044C000AFF30080BDE8F0814E414E006E616E009A
:1044D000494E4600696E66002DE9F0478146164652
:1044E0008AB0334878440DC88DE80D0030487844D0
:1044F000801C03AC0DC884E80D0041F69B300844D5
:10450000372190FBF1F290FBF1F5A5F1800501FB5D
:1045100012041B3C02D56442012000E00020DFF8B9
:1045200090A080460027FA44AAF1BE0A0DE0E007F9
:1045300009D03246684607EB47010AEB810100F0DB
:1045400034FB8DE8070064107F1C002CEFD1184F5E
:104550007F44AC3F18E0E80714D007EB04100DF1DE
:10456000180A90E80E008AE80E00C068F04201D1F7
:1045700098190890324606A903A800F016FB03AB71
:1045800083E807006D10641C002DE4D132466946B3
:10459000B8F1000F03A802D000F0F3FA01E000F038
:1045A00004FBC9E90001C9F808200AB0BDE8F0879A
:1045B00004200000007B00F0800070470048704736
:1045C000C00100207546FFF7F9FFAE4605006946B9
:1045D000534620F00700854618B020B5FFF7CEFB04
:1045E000BDE820404FF000064FF000074FF00008F4
:1045F0004FF0000B21F00701AC46ACE8C009ACE875
:10460000C009ACE8C009ACE8C0098D46704710B5D8
:104610000446AFF300802046BDE81040FBF7DFBD45
:104620004FF0013C50F8042B51F8043B9A4221D141
:10463000A2EB0C03934313EACC1317D150F8042BCD
:1046400051F8043B9A4215D1A2EB0C03934313EAB1
:10465000CC130BD150F8042B51F8043B9A4209D1EA
:10466000A2EB0C03934313EACC13DBD04FF0000012
:10467000704700BFD01A01BAB1FA81F101F01801F8
:1046800022FA01F0CB40C1F12001DBB2C0B2C01A66
:104690002CFA01F3D11A914311EAC311E6D1704704
:1046A0005FEA400C08BF91F0000F4FEA8C234FEAFD
:1046B000C12243EA51514FEA1C5018BF00F5F040A7
:1046C0004FEA300018BF41F000415FEA6C5C00F037
:1046D0002980BCF1FF3F08BF40F080407047130CB9
:1046E00006BF12044FF0100C4FF0000C130E04BF65
:1046F00012020CF1080C130F04BF12010CF1040C90
:10470000930F04BF92000CF1020CD30F04BF5200B0
:104710000CF1010C11464FF00002A0F11F00A0EBBC
:104720000C00704711F0004F08BF704731F0004196
:104730003FF4D5AF0B0C06BF09044FF0100C4FF03F
:10474000000C0B0E04BF09020CF1080C0B0F04BF88
:1047500009010CF1040C8B0F04BF89000CF1020C51
:10476000CB0F04BF49000CF1010CCCF12003A0EBEE
:104770000C0022FA03F302FA0CF241EA030100F101
:104780000100704720F07F4C80EA030023F07F4750
:10479000ACEB070303F57C5300F0004003F1FF038B
:1047A0002DE980494FEA154B09B44FEA144325EA35
:1047B0000B4E24EA03480FF2042606EB13274908A0
:1047C0003E785FEA320203FB0667C7F5000707FB86
:1047D00006F64FEA54374FEAD64606F1020607FBC3
:1047E000066CCCF1005C4FEA1C472CEA074C07FB37
:1047F00006F40CFB06F504EB15464FEA961634BF9B
:1048000000204FF000404FEAD13706FB07FC4FEA8B
:104810001C4C0CFB0BF7D21B03FB0CF761EB0701E5
:104820000CFB0EF7B0EB074072EB17420CFB08F7DE
:1048300034BFA2EB0742B2EB074261EB17414FEAEC
:104840000C444FEA910706FB07FC4FEA1C4C0CFB9B
:104850000BF7B0EBC74072EB573203FB0CF734BFDA
:10486000A2EBC742B2EBC74261EB57310CFB0EF72C
:10487000B0EBC70072EB57720CFB08F734BFA2EB2A
:10488000C702B2EBC70261EB5771039F4FEA816128
:1048900041EA921104EBCC044FEAD1374FEA82622D
:1048A00006FB07FC42EA90124FEA80604FEA1C4C7C
:1048B0000CFB0BF7D21B03FB0CF761EB07010CFBA6
:1048C0000EF7B0EB074072EB17420CFB08F734BF52
:1048D000A2EB0742B2EB074261EB17414FEA8C555E
:1048E0004FEA910704EB9C2406FB07FC4FEA1C4CA3
:1048F0000CFB0BF7B0EBC74072EB573203FB0CF726
:1049000034BFA2EBC742B2EBC74261EB57310CFB9D
:104910000EF7B0EBC70072EB57720CFB08F734BF11
:10492000A2EBC702B2EBC70261EB577115EB4C2546
:104930004FEA816141EA92114FEA82624FEAD13730
:1049400042EA901206FB07FC44F100044FEA806043
:104950004FEA1C4C0CFB0BF7D21B03FB0CF761EB73
:1049600007010CFB0EF7B0EB074072EB17420CFB94
:1049700008F734BFA2EB0742B2EB074261EB1741E5
:1049800015EB1C154FEA813141EA92414FEA823220
:1049900042EA90424FEA80304FEA0C7644F100043C
:1049A00048EA03434EEA0B484FF0000EB2EB080C06
:1049B00071EB030724BF624639464EEB0E0E4FF0F3
:1049C000000B0018524149414BEB0B0BB2EB080CAA
:1049D00071EB03077BF1000B24BF624639464EEBB7
:1049E0000E0E4FF0000B0018524149414BEB0B0BE0
:1049F000B2EB080C71EB03077BF1000B24BF62469E
:104A000039464EEB0E0E51EA020718BF46F001067A
:104A100016EB0E7655F1000254F1000103D5BDE806
:104A20008901BDE80088BDE88901BDE80048B619E4
:104A3000524141EB0101A3F10103704780807F7E69
:104A40007D7C7B7A79787776767574737271717004
:104A50006F6E6E6D6C6C6B6A6A69686867666665B6
:104A60006464636362616160605F5F5E5E5D5D5C44
:104A70005C5B5B5A5A5959585857575656555555B5
:104A80005454535352525251515050504F4F4F4E15
:104A90004E4D4D4D4C4C4C4B4B4B4A4A4A49494963
:104AA00048484847474747464646454545444444A5
:104AB000444343434342424242414141002B26D4B6
:104AC000770021D01CB54FEA370703B44FF0100030
:104AD0004FF010014FF000000FBCBDE810400BF18B
:104AE000010BBBF1010F08BF5FEA170722BF12F1EC
:104AF000010211F101014FF0004143F1000300F008
:104B0000004043EA00007047F9D35708DAE746EA65
:104B1000064613F1400F4FEA16461FDD13F1200F32
:104B2000DFBF16430A46002120335B42C8D0C3F1E1
:104B3000200746EA064602FA07F74FEA164646EA13
:104B40000706C3F1200722FA03F201FA07F721FA58
:104B500003F14FF0000342EA0702B1E746EA02061A
:104B600046EA06464FEA164646EA0106BCBF46EA52
:104B70000646360C4FF000034FF000024FF00001E4
:104B80009EE72DE9C048934630B491E8380007C845
:104B900031EA400C48BF34EA430C03D5FFF7F2FD7D
:104BA000FFF78CFFF0BCBDE800882DE9C0489346B4
:104BB00030B491E8380007C810F0804F08BF13F0F8
:104BC000804F03D100F005F8FFF778FFF0BCBDE897
:104BD000008820F07F4780EA030023F07F4C07EB3A
:104BE0000C03A3F57C5300F00040A3F1FE0392F008
:104BF000000F00F0B38095F0000F00F077802DE9F2
:104C000001494FEA11404FEA144621EA004800FBEF
:104C100006FC24EA064708FB06F607FB08F800FB3B
:104C200007F718EB06484CEB164C4FEA124B18EB03
:104C300007484FEA15464CEB174022EA0B4E0BFB98
:104C400006FC25EA06470EFB06F607FB0EFE0BFBED
:104C500007F71EEB064E4CEB164C4FF000061EEB12
:104C6000074E4CEB174B18EB0B0840F1000018EB0C
:104C70000E0B58EB000840F100008F1A4FF00001B6
:104C80003CBFC943661B14BFB5EB040C00213CBFFD
:104C9000C943F61B4FEA17444EEA8E0E27EA044535
:104CA0004FEA1C4704FB07622CEA074C05FB07F799
:104CB0000CFB05F604FB0CFC16EB074642EB174217
:104CC00016EB0C4642EB1C421BEB060658EB0202AD
:104CD000414146EA9E0601D5BDE80189B619524117
:104CE00041EB0101A3F10103BDE801894FEA14453D
:104CF0004FEA114724EA054621EA074C05FB07F471
:104D000006FB07F70CFB06F105FB0CFC11EB07415A
:104D100044EB17444FEA124711EB0C4144EB1C449F
:104D200022EA074C05FB07F206FB07F70CFB06F629
:104D300005FB0CFC16EB074642EB174216EB0C4644
:104D400042EB1C456A1854F1000148BF7047B61980
:104D5000524141EB0101A3F10103704795F0000FAF
:104D600037D04FEA11424FEA144721EA024624EABB
:104D7000074C02FB07F106FB07F70CFB06F402FBEE
:104D80000CFC14EB074441EB17414FEA154714EBB9
:104D90000C4441EB1C4125EA074C02FB07F506FBDE
:104DA00007F70CFB06F602FB0CFC16EB074645EB7F
:104DB000174516EB0C4645EB1C42121951F1000148
:104DC00048BF7047B619524141EB0101A3F10103FD
:104DD00070474FEA14454FEA114724EA054621EA95
:104DE000074C05FB07F106FB07F70CFB06F24FF03B
:104DF000000605FB0CFC12EB074241EB174112EBDE
:104E00000C4251EB1C4148BF7047921841EB010125
:104E1000A3F101037047490050EAC12018BF0420E4
:104E20004A0D18BF40F0010040F2FF72B2EB515F33
:104E300008BF40F00200012808BF052070472DE997
:104E4000F0414F1E00EBC7010446D1E900011546B1
:104E50001E4637F006020DD02A46334600F0D2FC3B
:104E60007F1E04EBC703D3E9002300F063FA37F099
:104E70000602F1D1022F25D0042F13D0062F18BF20
:104E8000BDE8F0812A46334600F0BCFCD4E90A2391
:104E900000F050FA2A46334600F0B4FCD4E9082367
:104EA00000F048FA2A46334600F0ACFCD4E9062369
:104EB00000F040FA2A46334600F0A4FCD4E904236B
:104EC00000F038FA2A46334600F09CFCD4E902236D
:104ED00000F030FA2A46334600F094FCD4E900236F
:104EE000BDE8F04100F026BA012201F02ABA00F034
:104EF00021BA0000024A0020110701F022BA000086
:104F000001FDFFFF2DE9F84F04460D4621F000405A
:104F100000917349814211DC7249884201DC06D15B
:104F20002CB120462946BDE8F84FFFF7DDBF6E489B
:104F3000002DCCBF6D496E49BDE8F88F6D498142A7
:104F400011DD6D498142D8BF4FF0FF366DDD20463F
:104F50002946FFF760FF042808BFFFF7CBFF204674
:104F60002946BDE8F88F6549654F25F00045814227
:104F700033DD6449814219DD002632464FF080431B
:104F80002046294600F0D6F980468A46012220466E
:104F9000294601F0D6F900223B4600F073FD424657
:104FA000534600F083FA04460D463EE001260022F7
:104FB000BA463B462046294600F0BCF980460F46DB
:104FC000002253462046294600F05CFD42463B46FF
:104FD00000F06CFA04460D4627E04B4981421BDD88
:104FE000DFF828A10226002253462046294600F079
:104FF00009FC00223B4600F09DF980460F46002246
:1050000053462046294600F03DFD42463B4600F00F
:105010004DFA04460D4608E0032622462B460020A2
:105020003B4900F043FA04460D4622462B46104603
:10503000194600F0E7FB8B46824602460B4600F01D
:10504000E1FB07460246334888460B460621784472
:10505000FFF7F5FE52465B4600F0D4FB82462E4831
:105060008B463A46434605217844FFF7E8FE3A4628
:10507000434600F0C7FB02460B46002E50465946F9
:105080000CDA00F057F922462B4600F0BBFB01B0CA
:1050900022462B46BDE8F04F00F0E8BC00F04AF98C
:1050A00022462B4600F0AEFB1C4A7A4402EBC603B4
:1050B000D3E9002300F0E6FC22462B4600F0E2FC98
:1050C000174A7A4402EBC603D3E9002300F0CEFC72
:1050D000009A002AB8BF81F00041BDE8F88F0000B7
:1050E000000010440000F07F182D4454FB21F93FCC
:1050F000FB21F9BF0000DC3F0000203E0000F33F31
:105100000000F03F0000E63F008003400000F83F51
:105110000000F0BFE6130000A413000042130000DB
:105120000A1300002DE9F04D9446CCF1000423F061
:1051300000464CEA0404524F46EAD4749A46884624
:1051400021F00042BC4206D8454240EA050442EA4A
:10515000D474BC4204D9BDE8F04D6246FFF7C7BE27
:10516000AAF14055A5F17F6555EA0C040BD0022445
:1051700004EAAA74434DDFF810E144EAD87452EA15
:10518000000B04D00CE0BDE8F04DFFF7BBBE002CD7
:1051900014BF012CBDE8F08D022C30D0032C32D08E
:1051A00056EA0C0B0AD0BE4220D1BA4209D126F0F1
:1051B000804622F080423346114617E000291ADB70
:1051C00025E0DFF8C8B0FB44002C04BFDBE9000198
:1051D000BDE8F08D012C02BFDBE9000181F0004148
:1051E000BDE8F08D022C0AD0032C0CD0BA4212D1AB
:1051F000B8F1000F0BDA23482549BDE8F08D2846A9
:105200002449BDE8F08D28467146BDE8F08D1D4863
:105210002149BDE8F08D921B12153C2AC4BF1948E4
:105220001D490EDCBAF1000FBEBF12F13C0F002089
:10523000014606DB624600F039F921F00041FFF734
:1052400061FE002C08BFBDE8F08D012C04BF81F089
:105250000041BDE8F08D114A114B022C07D000F03F
:1052600011FC2A46BDE8F04D0A4B00F00BBC00F0E3
:1052700009FC2A46BDE8F04D064B00F0F7BB0000E4
:105280000000F07F182D4454FB2109C09E1200003D
:10529000FB21F9BFFB210940FB21F93F075C1433D7
:1052A00026A6A13C10B500290AD00878002807D00E
:1052B00005487844FFF7B4F9002801D0002010BD5C
:1052C0000248784410BD0000721200006A1200000B
:1052D00021F00042A2F16052B2F5801F01F00043BC
:1052E00028BFD2F17F6C0BD95FEA001C43EAC202EF
:1052F00042EB507018BF704728BF20F00100704784
:10530000B2F5801FBCBF184670474FEA410C1CF530
:10531000001F02D2084600F02ABF70B500F01CFB47
:1053200000000089FFF7F6BF4FF00040A0F58000B5
:105330007047000010B591EA030F48BF83F00043A7
:1053400000F1A883841A71EB030C05D2121943EB08
:105350000C03001B61EB0C01DFF824E14FEA115450
:10536000A4EB135C1EEA430F18BF9EEA445F73D0A0
:1053700023EA0E03DCF1200E21EA045143F48013EA
:1053800032D322FA0CFE10EB0E0023FA0CFE41EB96
:105390000E01CCF1200E03FA0EFE10EB0E0051F1BF
:1053A0000001B1F5801FCCF1200E32D201EB045187
:1053B00012FA0EF2BDE8104058BF7047401C38BFCB
:1053C0005FEA420218BF7047002814BF20F00100B6
:1053D00041F100014FEA410313F5001F38BF704748
:1053E000A1F1C04100F006BB012A43EB0302ACF17E
:1053F000200CDCF11F0E32BF4FF0000E23FA0CF32D
:1054000010EB030041EB0451B4EB115FD0D0A1EBE2
:10541000045101F5801149085FEA300001EB0451A5
:105420000ED350F1000038BF12FA0EFE08D1BDE8CD
:105430001040C9E7401C38BF5FEA4202CAD1C3E747
:10544000BDE810404FEA410313F5001F38BF704715
:10545000A1F1C04100F0CEBA9EEA445F08D011EA43
:105460005E0FBDE8104004BF01F00041002070470E
:10547000BDE8104070B500F06FFA00BF64FBBE3E9F
:105480000000E0FF02494FF0000000F028BF00BF1D
:105490000000F87F491058BFC1F140415B1058BF70
:1054A000C3F140438B42EFF3008070472DE9C041C8
:1054B00030B4DFF8A0C23CEA111418BF3CEA131460
:1054C00000F0EC8081EA03051CEA111444EAD5746B
:1054D00018BF1CEA131500F0C780A4EB05044FF0B9
:1054E000004545EAC12145EAC32341EA505143EA58
:1054F000525304F17F74994204F500344FEAC020FE
:105500004FEAC22208BF904200F09C804FEA136528
:105510000FF24016765D4FEA134506FB05F7C7F11B
:10552000807706FB07F74FEAD737A7FB0368764279
:10553000C8F58038A7FB06CE38BFA8F1010807FBE5
:1055400008E64FF0000EA6FB028CE6FB03CEDCF172
:10555000000CCEF1004E38BFAEF1010EA6FB0C5888
:105560004FF000074FF00005E6FB0E87A1FB08C6D1
:10557000A0FB07CE16EB0E0645F10005E1FB076523
:1055800015F1E04E7EBFA4F580345FEA46066D411A
:1055900016F1800745F100054FEA17274FEA066626
:1055A00047EA0567A6F1DE46B6F1805F4FEA1525AA
:1055B0001FD9384624F0010C05EBC471BCF1FE6F15
:1055C00001EB0C1102D8F0BCBDE8008124425CBFA5
:1055D00001F5801E9EEAC47F02D4F0BCBDE80081C4
:1055E000244238D4F0BCA1F1C041BDE8004100F034
:1055F00001BA4FEAD22242EA43524FEAD323A7FB31
:1056000002864FEAD02040EA415007FB03661EEABB
:105610000E0F4FEAD12105FB026658BFA6EB0056DC
:10562000B6EB00564FEA520E4EEAC37E18EB0E0E52
:1056300056EB530EBDD518EB02085E417F1C55F1A9
:105640000005B6E74FF480154FF000074FF0000655
:105650004FF00008ADE7F0BC4FF0000001F1C04191
:1056600001F00041BDE8008111EA0C1F0CEA13159E
:1056700000D00CE013EA0C1F00F025804FF0000072
:10568000F0BC81EA030101F00041BDE80081F0BCFB
:10569000BDE8004181EA030100F0ACB9F0BCBDE80F
:1056A000004170B500F058F9097EFC3E00F007B8E3
:1056B00081EA03014FF0000001F00041704781EAE8
:1056C000030100F097B9F0BCBDE800414FF00000C5
:1056D00021497047FFFDFBF9F7F5F4F2F0EEEDEB31
:1056E000E9E8E6E4E3E1E0DEDDDBDAD8D7D5D4D3E0
:1056F000D1D0CFCDCCCBCAC8C7C6C5C4C2C1C0BF2C
:10570000BEBDBCBBBAB9B8B7B6B5B4B3B2B1B0AF31
:10571000AEADACABAAA9A8A8A7A6A5A4A3A3A2A115
:10572000A09F9F9E9D9C9C9B9A99999897979695D0
:1057300095949393929191908F8F8E8E8D8C8C8B6C
:105740008B8A8989888887878685858484838382F4
:10575000828181800000FF070000F87F10F0004286
:1057600048BF4042B0FA80F310FA03F10AD0C3F107
:105770001D0303F580634FEA415002EB035202EB35
:10578000D12170474FF000007047000051EA030C30
:1057900017D41CF5801F58BFBCF5801F00F1068090
:1057A000994218BF704708BF9042704707D711F55C
:1057B000801F58BF13F5801F19D499427047894242
:1057C00070471CF5801F08D5BCF5801FF7D58B42AC
:1057D00018BF704708BF824270474FF4001C1CEB93
:1057E000410F38BF1CEB430F01D28B42704770B59D
:1057F00000F0B2F8922449004FF000514FF080536E
:10580000FFF748BEDFF848C170B51CEA111E1EBF85
:105810001CEA13159EEA0C0F95EA0C0F00F06F803E
:1058200081EA030423EA4C134EEAD47E21EA4C11A8
:1058300041F4801143F48013AE44A1FB024CA0FB61
:105840000365AEF17F7E361955EB0C05A1FB034CC9
:105850004CF10003A0FB021C16EB0C06654153F152
:105860000003094218BF46F0010613F4007F0BD174
:105870004FEA03314FEA0530340341EA155140EA5B
:1058800016506FF003020AE04FEAC3214FEAC52029
:10589000F40241EA555140EA56506FF0020202EB21
:1058A0002E4201EB025585EACE710AD05FEA440C24
:1058B00018BF24F0004450F1000041F1000120EA3B
:1058C000D47040F2FE7C624500D270BDA84214BF85
:1058D0004FF080444FF04044002E08BF0024BEF13A
:1058E000806FA8BFA1F1C041BDE8704080F2828006
:1058F0004FF0000001F1C04101F0004170479EEA05
:105900000C0F0CEA131518BF95EA0C0F06D04FF0D8
:10591000000081EA030E0EF0004170BD00F01CF89B
:105920008900013E00F007B800F009B84FEA430CC7
:105930005FEA5C5C08D081EA030100F05BB84FEAE3
:10594000410C5FEA5C5CF6D14FF000000149704702
:105950000000FF070000F87F0EF1020E2EF0030E8C
:105960005EF8046B364205D4012A43EB030515F5B6
:10597000001F12D8012841EB010C1CF5001F0CD8A8
:105980000ED14FEAD17C15F5001F0CEB4C0C0CF13D
:10599000020C08BF4CEBD37C04E04FF0080C01E094
:1059A0004FEAD37C0CEB4C0526FA05F606F0070609
:1059B000B6F1040C06D20EEB860CBDE870404CF03C
:1059C000010C6047DFE80CF0090B02024FF00041C8
:1059D0004FF00000A1F5002170BD194610460128C6
:1059E00051EB010418BFD4F5001484BF002001F06E
:1059F000004170BD0808A0F500114FEA3101704761
:105A000053EA010C17D41CF5801F58BFBCF5801F4A
:105A100000F106808B4218BF704708BF8242704772
:105A200007D713F5801F58BF11F5801F19D48B427B
:105A300070479B4270471CF5801F08D5BCF5801F3E
:105A4000F7D5994218BF704708BF904270474FF48E
:105A5000001C1CEB430F38BF1CEB410F01D29942D5
:105A600070470FB40CBC03BCFFF7C1BE91EA030F33
:105A700010B581F000413FF565AC83F0004300F0C4
:105A800009B8000010B591EA030F48BF83F0004346
:105A90003FF558AC841A71EB030C07D212198CF045
:105AA000004C43EB0C03001B61EB0C01DFF8A4E19D
:105AB0004FEA1154A4EB135C1EEA430F18BF9EEA91
:105AC000445F00F0B08023EA6E03524221EA0451A1
:105AD000C3EB6E0338BF5B1EDCF1200E25D322FA28
